:020000040800F2
:1080000000500020C18E0008558D00085D8D0008CD
:10801000658D00086D8D0008758D0008000000005A
:108020000000000000000000000000007D8D00083E
:10803000898D000800000000958D0008A18D0008C2
:10804000098F0008098F0008098F0008098F0008B0
:10805000098F0008098F0008098F0008098F0008A0
:10806000098F0008098F0008098F0008098F000890
:10807000098F0008098F0008098F0008098F000880
:10808000098F0008098F0008098F0008098F000870
:10809000AD8D0008C18D0008098F0008098F000808
:1080A000098F0008098F0008098F0008098F000850
:1080B000098F0008098F0008098F0008098F000840
:1080C000098F0008098F0008098F0008098F000830
:1080D000098F0008098F0008098F0008098F000820
:1080E000D58D0008098F0008098F000800000000E6
:1080F0000000000000000000000000000000000080
:0C81000000000000000000005FF808F123
:10810C0010B5054C237833B9044B13B10448AFF3C5
:10811C0000800123237010BD180000200000000017
:10812C008CB3000808B5034B1BB103490348AFF3EC
:10813C00008008BD000000001C0000208CB300086B
:10814C0080B582B000AF1F4BDB691E4A43F0007351
:10815C00D3611C4BDB6903F000737B607B681A4BAB
:10816C001A4A1A60184B04225A60174B00229A6064
:10817C00154B0022DA60144B4FF440221A61124B5B
:10818C004FF480125A61104B00221A760E4B0022CB
:10819C005A760D4B00229A760B4B0022DA760A4B5C
:1081AC0000221A77084B00225A77074800F02EFF5E
:1081BC000346002B01D000F085FD00BF0837BD46FB
:1081CC0080BD00BF0010024034000020006400405D
:1081DC0080B588B000AF786007F1100300221A60F8
:1081EC005A609A60DA607B681B68244A934241D1DA
:1081FC00234BDB69224A43F00073D361204BDB69CC
:10820C0003F00073FB60FB681D4B9B691C4A43F039
:10821C00040393611A4B9B6903F00403BB60BB68B6
:10822C004FF400633B6100237B610023BB6107F1CA
:10823C0010031946134802F05BF84FF480533B616E
:10824C0002237B610323FB6107F1100319460D48E0
:10825C0002F04EF800220021142001F012FE14202E
:10826C0001F02BFE00220021152001F00AFE152042
:10827C0001F023FE00BF2037BD4680BD00640040E6
:10828C00001002400008014080B588B000AF07F133
:10829C00100300221A605A609A60DA602D4B9B69B9
:1082AC002C4A43F0100393612A4B9B6903F0100393
:1082BC00FB60FB68274B9B69264A43F020039361C4
:1082CC00244B9B6903F02003BB60BB68214B9B696B
:1082DC00204A43F0040393611E4B9B6903F0040393
:1082EC007B607B681B4B9B691A4A43F008039361C4
:1082FC00184B9B6903F008033B603B68002220216C
:10830C00154802F079F94FF400533B61134B7B6134
:10831C000023BB6107F110031946114801F0E8FF77
:10832C0020233B6101237B610023BB610223FB61A2
:10833C0007F110031946084801F0DAFF002200216A
:10834C00282001F09EFD282001F0B7FD00BF20374A
:10835C00BD4680BD00100240000801400000111015
:10836C000010014080B400AFBFF34F8F00BF064B2D
:10837C00DB6803F4E0620449044B1343CB60BFF3A6
:10838C004F8F00BF00BFFDE700ED00E00400FA05D1
:10839C0080B58CB000AF00F0B3FD00F093F800F0A6
:1083AC0071F902F063F9404BDB693F4A43F000631B
:1083BC00D3613D4BDB6903F000637B607B68FFF7A7
:1083CC0063FFFFF7BDFE00F00DFD384800F0E2FF43
:1083DC000346002B01D000F075FC0123BB62002387
:1083EC00FB610023BB610023BB600023FB60002307
:1083FC003B6100237B6100233B6201237B6207F11D
:10840C0008031946294800F0FCFE0346002B01D056
:10841C0000F058FC0221254801F013FA0346002B0A
:10842C0001D000F04FFC00F0FBF8214B08221A6140
:10843C001F4B00229A601E4B0022DA601C4B8022DC
:10844C001A601C4B1B78002B2BD11B4B1B4A184959
:10845C00164800F0E3FF0346002B01D000F032FC7D
:10846C00164B1B781133DAB2144B1A70134B5B7822
:10847C001233DAB2114B5A70104B9B781333DAB2B9
:10848C000E4B9A70642000F09DFD0D4B1B78013350
:10849C00DAB20B4B1A700A4B1B781E2B01D900F069
:1084AC0077F800F00FFBCCE70010024034000020FE
:1084BC005C000020800000207C0000207400002064
:1084CC009000002080B592B000AF07F11C03282269
:1084DC000021184602F01AFF07F1080300221A6067
:1084EC005A609A60DA601A610123FB614FF48033A1
:1084FC003B6200237B620123FB620223BB634FF4CC
:10850C008033FB634FF4C0133B6407F11C03184624
:10851C0002F0B8F80346002B01D000F0D3FB0F2378
:10852C00BB600223FB6000233B614FF4C0637B61A3
:10853C000023BB6107F108030221184602F024FB5B
:10854C000346002B01D000F0BDFB0F4B9B690E4A7C
:10855C0043F0010393610C4B9B6903F001037B60B7
:10856C007B680A4B5B687B647B6C23F0E0637B6409
:10857C007B6C43F000737B64044A7B6C536000BFDC
:10858C004837BD4680BD00BF0010024000000140CE
:10859C0080B500AF0C4B1B78002B08D10A4B012285
:1085AC001A7001222021094802F026F807E0064B38
:1085BC0000221A7000222021044802F01DF8044BFE
:1085CC0000221A7000BF80BD9100002000080140FD
:1085DC009000002080B582B000AF02F047F80E4B3F
:1085EC00DB690D4A43F00063D3610B4BDB6903F08D
:1085FC0000633B603B68094B5B687B607B68012BCD
:10860C0003D1064B02225A6002E0044B01225A604D
:10861C0000BF0837BD4680BD00100240006C004012
:10862C0080B500AF134B7A221A60124B0022DA602D
:10863C00104B00229A600F4B01221A610E4B012243
:10864C001A700E4B0C4A0B490D4800F0E7FE03461E
:10865C00002B01D000F036FB00BF084B1B681946FD
:10866C00074800F0AAFF0346002BF6D100BF00BF5D
:10867C0080BD00BF98480020B0480020B8480020BA
:10868C003400002080B500AF00220021142001F03E
:10869C00F8FB142001F011FC00BF80BD80B483B046
:1086AC0000AF786039607B681B69042B13D13B6881
:1086BC001B781A063B6801331B781B041A433B6872
:1086CC0002331B781B0213433A68033212781343AC
:1086DC001A46034B1A6000BF0C37BD4680BC70476E
:1086EC008800002080B58CB000AF786007F10C03D7
:1086FC0007F114020021786800F082FF0346002B7A
:10870C0002D000F0DFFA44E07B697B2B19D1224BBD
:10871C001B78DBB2002B14D107F10C03082219468D
:10872C001E4802F0E3FD0346002B32D14FF0FF331D
:10873C0004221B491B4802F005FC174B01221A703E
:10874C0027E0154B1B78DBB2012B12D17B69712B07
:10875C000FD107F10C0207F1140311461846FFF76D
:10876C009DFF4FF0FF3305220F490E4802F0EAFB44
:10877C000FE0094B1B78DBB2012B0AD17B69702B04
:10878C0007D107F10C0207F114031146184600F04B
:10879C0011F93037BD4680BD81000020000000205B
:1087AC00A4B30008BC480020A8B3000880B586B06C
:1087BC0000AF01F00DFC00237B600023BB600E4B6F
:1087CC001B683B6130237B613A1D07F1080311469E
:1087DC00184601F0E5FC0346002B06D001F01EFC08
:1087EC00064B00221A70FFF7BDFD01F017FC00BF0D
:1087FC001837BD4680BD00BF8400002080000020DB
:10880C0080B500AF094B5B68012B03D1084B094ABB
:10881C001A6002E0064B084A1A60084B00221A60E4
:10882C00FFF7C4FF00F00CF800BF80BD006C0040E7
:10883C008400002000400108008000088C0000200B
:10884C0080B582B000AF1E4B7A221A601C4B0022FE
:10885C00DA601B4B00229A60194B04221A61194BE7
:10886C001B687B607B681B0EDAB2174B1A707B6837
:10887C001B0CDAB2144B5A707B681B0ADAB2124B1F
:10888C009A707B68DAB2104BDA70104B0E4A0C49B6
:10889C000F4800F0C3FD0346002B01D000F012FA84
:1088AC0000BF0A4B1B681946094800F086FE0346B8
:1088BC00002BF6D100BF00BF0837BD4680BD00BFFE
:1088CC009848002084000020B0480020B8480020C0
:1088DC003400002080B500AF174B7A221A60164B7B
:1088EC000022DA60144B00229A60134B01221A61A9
:1088FC00124B1B78DBB2012B03D1114B02221A70E5
:10890C0002E00F4B03221A700E4B0D4A0A490E4817
:10891C0000F084FD0346002B01D000F0D3F900BF1A
:10892C00084B1B681946084800F047FE0346002B0D
:10893C00F6D100BF00BF80BD984800208200002007
:10894C00B0480020B84800203400002080B400AFAC
:10895C000B4B1B889BB201335A42C3F30803C2F37F
:10896C00080258BF5342074A128892B293420CBF76
:10897C0001230023DBB21846BD4680BC704700BF04
:10898C00944800209648002080B400AF074B1B8809
:10899C009AB2074B1B889BB29A420CBF012300234F
:1089AC00DBB21846BD4680BC704700BF944800201F
:1089BC0096480020B0B582B000AF78603960FFF700
:1089CC00C5FF0346002B31D11A4B1B889BB21946AD
:1089DC00194A0B46DB000B449B001A447B68144677
:1089EC001D460FCD0FC495E8070084E80700114B16
:1089FC001B889BB21A461346DB0013449B001833AA
:108A0C000D4A1344043308223968184602F0AAFCB4
:108A1C00084B1B889BB201335A42C3F30803C2F3C1
:108A2C00080258BF53429AB2024B1A8000BF083753
:108A3C00BD46B0BD9448002094000020B0B582B073
:108A4C0000AF78603960FFF79FFF0346002B31D1F0
:108A5C001A4B1B889BB219467868194A0B46DB00E7
:108A6C000B449B00134404461D460FCD0FC495E8E0
:108A7C00070084E80700114B1B889BB21A4613466B
:108A8C00DB0013449B0018330D4A134404330822B3
:108A9C001946386802F066FC084B1B889BB2013300
:108AAC005A42C3F30803C2F3080258BF53429AB2A6
:108ABC00024B1A8000BF0837BD46B0BD9648002057
:108ACC0094000020B0B58CB000AF714B1B78032B19
:108ADC0000F0C780032B00F3D380002B02D0022BB5
:108AEC000CD0CDE06B4B1B78DBB2002B00F0CC80B4
:108AFC00FFF786FE664B02221A70C5E0664B1B68B8
:108B0C00FB624FF0FF330B226449654802F01AFAFE
:108B1C006AE0FFF739FF0346002B65D13A4607F1AF
:108B2C00080311461846FFF789FFBB6987F8273001
:108B3C0001F04EFA002387F82B304FE097F82B30DA
:108B4C0030333B4413F8303C3B8597F82B305A1CA0
:108B5C0097F827309A420DDA97F82B3001333033DF
:108B6C003B4413F8303C1B021AB2B7F928301343BC
:108B7C001BB23B853B8D00221C46154622462B46DC
:108B8C00F96A012001F0B4F90346002B08D001F07A
:108B9C0045FA404B00221A703D4B00221A7074E0CB
:108BAC00FB6A0233FB6297F82B305A1C97F827307C
:108BBC009A4201DA022200E001223A4B1B6813446C
:108BCC00384A13604FF0FF3302223749344802F021
:108BDC00B9F997F82B30023387F82B3097F82B2004
:108BEC0097F827309A42A9D3304B1A682D4B1B6843
:108BFC009A428ED8274B00221A704FF0FF3309226D
:108C0C002B49274802F09EF9264B1A68274B1B6804
:108C1C009A4213D04FF0FF3307222649204802F026
:108C2C0091F9FFF757FE1A4B00221A70FFF7D2FC8E
:108C3C004FF47A7000F0C6F9FFF794FB4FF0FF3356
:108C4C000A221D49164802F07DF91C4B01221A70AC
:108C5C00FFF740FE0E4B03221A70144B00221A60D1
:108C6C0013E04FF0FF33092215490D4802F06AF961
:108C7C00FFF7B0FC4FF47A7000F0A4F9FFF772FB29
:108C8C00034B00221A7000E000BF3037BD46B0BD68
:108C9C00800000208100002084000020B0B3000878
:108CAC00BC4800208C000020BCB3000888000020C9
:108CBC00C0B30008CCB30008D4B300088200002075
:108CCC00E0B3000880B500AF72B600BF01222021CE
:108CDC00034801F091FCFFF77DFCFFF743FB00BF5D
:108CEC000008014080B485B000AF154B9B69144A55
:108CFC0043F001039361124B9B6903F00103BB60CA
:108D0C00BB680F4BDB690E4A43F08053D3610C4BAD
:108D1C00DB6903F080537B607B680A4B5B68FB600C
:108D2C00FB6823F0E063FB60FB6843F00073FB60BF
:108D3C00044AFB68536000BF1437BD4680BC7047C3
:108D4C00001002400000014080B400AF00BFFDE7FE
:108D5C0080B400AF00BFFDE780B400AF00BFFDE7FB
:108D6C0080B400AF00BFFDE780B400AF00BFFDE7EB
:108D7C0080B400AF00BFBD4680BC704780B400AF6C
:108D8C0000BFBD4680BC704780B400AF00BFBD467D
:108D9C0080BC704780B500AF00F0F8F800BF80BD14
:108DAC0080B500AF024800F071FD00BF80BD00BF70
:108DBC003400002080B500AF024800F067FD00BF12
:108DCC0080BD00BF3400002080B500AF4FF40050D0
:108DDC0001F02AFC00BF80BD80B400AF00BFBD46CF
:108DEC0080BC704780B500AF114B124A1A60104B13
:108DFC004FF4E1325A600E4B00229A600C4B002269
:108E0C00DA600B4B00221A61094B0C225A61084B99
:108E1C0000229A61064B0022DA61054802F042F802
:108E2C000346002B01D0FFF74DFF00BF80BD00BFF4
:108E3C00BC4800200044004080B588B000AF78608A
:108E4C0007F1100300221A605A609A60DA607B689E
:108E5C001B68154A934223D1144BDB69134A43F424
:108E6C000033D361114BDB6903F40033FB60FB6807
:108E7C000E4B9B690D4A43F0040393610B4B9B69AA
:108E8C0003F00403BB60BB680C233B6102237B61D2
:108E9C000223FB6107F110031946054801F028FA7B
:108EAC0000BF2037BD4680BD00440040001002408A
:108EBC0000080140FFF790FF0B480C490C4A0023B7
:108ECC0002E0D458C4500433C4188C42F9D3094A74
:108EDC00094C002301E013600432A242FBD302F0E0
:108EEC001DFAFFF755FA704700000020140000200F
:108EFC0020B400081800002028490020FEE70000DC
:108F0C0080B500AF084B1B68074A43F01003136091
:108F1C00032000F0ABFF002000F008F8FFF7E2FEA2
:108F2C000023184680BD00BF0020024080B582B0EF
:108F3C0000AF7860124B1A68124B1B7819464FF42D
:108F4C007A73B3FBF1F3B2FBF3F3184600F0C3FFF3
:108F5C000346002B01D001230EE07B680F2B0AD8AF
:108F6C00002279684FF0FF3000F08BFF064A7B68D7
:108F7C001360002300E0012318460837BD4680BD6E
:108F8C0008000020100000200C00002080B400AF6E
:108F9C00054B1B781A46054B1B681344034A136098
:108FAC0000BFBD4680BC7047100000200449002063
:108FBC0080B400AF024B1B681846BD4680BC70479E
:108FCC000449002080B584B000AF7860FFF7F0FF53
:108FDC00B8607B68FB60FB68B3F1FF3F05D00A4BC0
:108FEC001B781A46FB681344FB6000BFFFF7E0FFD9
:108FFC000246BB68D31AFA689A42F7D800BF00BF82
:10900C001037BD4680BD00BF1000002080B584B075
:10901C0000AF78607B68002B01D10123EDE07B6809
:10902C0093F82030DBB2002B02D17868FFF7D0F830
:10903C007B681B681A687B681B6842F001021A6027
:10904C00FFF7B6FFF86012E0FFF7B2FF0246FB68CD
:10905C00D31A0A2B0BD97B685B6A43F400327B680A
:10906C005A627B68052283F820200123C5E07B68C7
:10907C001B685B6803F00103002BE5D07B681B6861
:10908C001A687B681B6822F002021A60FFF790FFD7
:10909C00F86012E0FFF78CFF0246FB68D31A0A2B2C
:1090AC000BD97B685B6A43F400327B685A627B683D
:1090BC00052283F8202001239FE07B681B685B68F6
:1090CC0003F00203002BE5D17B681B7E012B08D13A
:1090DC007B681B681A687B681B6842F080021A6008
:1090EC0007E07B681B681A687B681B6822F08002AB
:1090FC001A607B685B7E012B08D17B681B681A6841
:10910C007B681B6842F040021A6007E07B681B68B2
:10911C001A687B681B6822F040021A607B689B7E91
:10912C00012B08D17B681B681A687B681B6842F0AE
:10913C0020021A6007E07B681B681A687B681B6852
:10914C0022F020021A607B68DB7E012B08D17B6841
:10915C001B681A687B681B6822F010021A6007E013
:10916C007B681B681A687B681B6842F010021A60E7
:10917C007B681B7F012B08D17B681B681A687B6896
:10918C001B6842F008021A6007E07B681B681A68CB
:10919C007B681B6822F008021A607B685B7F012BDE
:1091AC0008D17B681B681A687B681B6842F0040254
:1091BC001A6007E07B681B681A687B681B6822F0E2
:1091CC0004021A607B689A687B68DB681A437B68C8
:1091DC001B691A437B685B6942EA03017B685B6825
:1091EC005A1E7B681B680A43DA617B6800225A624C
:1091FC007B68012283F82020002318461037BD46D7
:10920C0080BD80B487B000AF786039607B681B6824
:10921C007B617B6893F82030FB74FB7C012B03D0C3
:10922C00FB7C022B40F0AA807B69D3F8003243F020
:10923C0001027B69C3F800223B685B6903F01F03E2
:10924C00012202FA03F3FB607B69D3F81C22FB6852
:10925C00DB431A407B69C3F81C223B68DB69002B9B
:10926C0023D17B69D3F80C22FB68DB431A407B6962
:10927C00C3F80C223B68DB6819043B685B689BB243
:10928C003A68526919437B69483243F832103B689B
:10929C009B6819043B681B689AB23B685B690A437C
:1092AC0079694833DB000B445A603B68DB69012B5E
:1092BC0022D17B69D3F80C22FB681A437B69C3F873
:1092CC000C223B681B6819043B685B689BB23A68CC
:1092DC00526919437B69483243F832103B689B68EA
:1092EC0019043B68DB689AB23B685B690A4379698D
:1092FC004833DB000B445A603B689B69002B09D157
:10930C007B69D3F80422FB68DB431A407B69C3F802
:10931C00042207E07B69D3F80422FB681A437B69BB
:10932C00C3F804223B681B69002B09D17B69D3F875
:10933C001422FB68DB431A407B69C3F8142207E054
:10934C007B69D3F81422FB681A437B69C3F8142297
:10935C003B681B6A012B07D17B69D3F81C22FB6885
:10936C001A437B69C3F81C227B69D3F8003223F0C3
:10937C0001027B69C3F80022002306E07B685B6A6C
:10938C0043F480227B685A62012318461C37BD4681
:10939C0080BC704780B584B000AF78607B6893F870
:1093AC002030DBB2012B2ED17B68022283F82020E7
:1093BC007B681B681A687B681B6822F001021A60C4
:1093CC00FFF7F6FDF86012E0FFF7F2FD0246FB68CE
:1093DC00D31A0A2B0BD97B685B6A43F400327B6887
:1093EC005A627B68052283F82020012312E07B68F7
:1093FC001B685B6803F00103002BE5D17B6800223E
:10940C005A62002306E07B685B6A43F400227B68A7
:10941C005A62012318461037BD4680BD80B489B00E
:10942C0000AFF860B9607A603B60FB6893F820305D
:10943C00FB77FB681B689B68BB61FB7F012B03D030
:10944C00FB7F022B40F0AD80BB6903F08063002BE7
:10945C000AD1BB6903F00063002B05D1BB6903F093
:10946C008053002B00F09580BB691B0E03F00303A7
:10947C007B6101227B699A403B681A60BB689B68E0
:10948C00002B0DD1BB681B685A05BB68DB68F968FB
:10949C0009681A437B6918331B010B441A600FE0EF
:1094AC00BB685B68DA00BB689B681A43BB68DB6807
:1094BC00F96809681A437B6918331B010B441A605D
:1094CC00FB681968BB681A697B6918331B010B446C
:1094DC0004331A60BB681B7D012B11D1FB681A6821
:1094EC007B6918331B01134404331B68FA68116839
:1094FC0043F480727B6918331B010B4404331A60EC
:10950C007B6807331B781A067B6806331B781B04B1
:10951C001A437B6805331B781B0213437A680432A9
:10952C0012781046FA68116843EA00027B691B0145
:10953C000B4403F5C6731A607B6803331B781A0659
:10954C007B6802331B781B041A437B6801331B783E
:10955C001B0213437A6812781046FA68116843EAC2
:10956C0000027B691B010B4403F5C4731A60FB6892
:10957C001A687B6918331B0113441B68FA6811685D
:10958C0043F001027B6918331B010B441A60002362
:10959C000EE0FB685B6A43F40012FB685A6201231D
:1095AC0006E0FB685B6A43F48022FB685A62012385
:1095BC0018462437BD4680BC704780B485B000AFD8
:1095CC00786039600023FB607B6893F82030FB7275
:1095DC00FB7A012B02D0FB7A022B0BD17B681B6828
:1095EC009A683B689B061A403B689B069A4201D0DE
:1095FC000123FB60FB6818461437BD4680BC7047DE
:10960C0080B487B000AFF860B9607A603B60FB68EB
:10961C0093F82030FB75FB7D012B03D0FB7D022BD7
:10962C0040F00381BB68002B0ED1FB681B68DB6824
:10963C0003F00303002B16D1FB685B6A43F40012A2
:10964C00FB685A620123F7E0FB681B681B6903F097
:10965C000303002B07D1FB685B6A43F40012FB6821
:10966C005A620123E8E0FB681A68BB681B331B01D4
:10967C0013441B6803F004027B689A607B689B6848
:10968C00002B0CD1FB681A68BB681B331B011344FD
:10969C001B685B0DC3F30A027B681A600BE0FB6866
:1096AC001A68BB681B331B0113441B68DB0823F0CF
:1096BC0060427B685A60FB681A68BB681B331B01ED
:1096CC0013441B6803F002027B68DA60FB681A68BB
:1096DC00BB681B331B01134404331B6803F00803E2
:1096EC00002B03D07B6808221A610BE0FB681A6818
:1096FC00BB681B331B01134404331B6803F00F02BC
:10970C007B681A61FB681A68BB681B331B01134426
:10971C0004331B681B0ADAB27B689A61FB681A680F
:10972C00BB681B331B01134404331B681B0C9AB21C
:10973C007B685A61FB681A68BB681B01134403F50C
:10974C00DC731B68DAB23B681A70FB681A68BB687A
:10975C001B01134403F5DC731B681A0A3B680133C5
:10976C00D2B21A70FB681A68BB681B01134403F56C
:10977C00DC731B681A0C3B680233D2B21A70FB689C
:10978C001A68BB681B01134403F5DC731B681A0EC3
:10979C003B680333D2B21A70FB681A68BB681B01B2
:1097AC00134403F5DE731A683B680433D2B21A70A3
:1097BC00FB681A68BB681B01134403F5DE731B6856
:1097CC001A0A3B680533D2B21A70FB681A68BB6878
:1097DC001B01134403F5DE731B681A0C3B6806333C
:1097EC00D2B21A70FB681A68BB681B01134403F5EC
:1097FC00DE731B681A0E3B680733D2B21A70BB6853
:10980C00002B08D1FB681B68DA68FB681B6842F008
:10981C002002DA6007E0FB681B681A69FB681B68AA
:10982C0042F020021A61002306E0FB685B6A43F4F5
:10983C008022FB685A62012318461C37BD4680BC47
:10984C00704780B485B000AF786039607B6893F85E
:10985C002030FB73FB7B012B02D0FB7B022B09D14D
:10986C007B681B6859697B681B683A680A435A61B4
:10987C00002306E07B685B6A43F480227B685A62B3
:10988C00012318461437BD4680BC704780B58AB09A
:10989C0000AF786000237B627B681B685B693B626E
:1098AC007B681B685B68FB617B681B689B68BB61A2
:1098BC007B681B68DB687B617B681B681B693B6191
:1098CC007B681B689B69FB603B6A03F00103002B00
:1098DC007CD0BB6903F00103002B23D07B681B6891
:1098EC0001229A60BB6903F00203002B03D0786855
:1098FC0000F083F916E0BB6903F00403002B04D0DD
:10990C007B6A43F400637B620CE0BB6903F00803E1
:10991C00002B04D07B6A43F480537B6202E07868AE
:10992C0000F086F9BB6903F48073002B24D07B68AC
:10993C001B684FF480729A60BB6903F40073002BB0
:10994C0003D0786800F062F916E0BB6903F4806319
:10995C00002B04D07B6A43F400537B620CE0BB69A0
:10996C0003F40063002B04D07B6A43F480437B62D6
:10997C0002E0786800F065F9BB6903F48033002BD2
:10998C0024D07B681B684FF480329A60BB6903F467
:10999C000033002B03D0786800F041F916E0BB6966
:1099AC0003F48023002B04D07B6A43F400437B62D6
:1099BC000CE0BB6903F40023002B04D07B6A43F456
:1099CC0080337B6202E0786800F044F93B6A03F074
:1099DC000803002B0CD07B6903F01003002B07D07D
:1099EC007B6A43F400737B627B681B681022DA602D
:1099FC003B6A03F00403002B0BD07B6903F00803D4
:109A0C00002B06D07B681B680822DA60786800F0AF
:109A1C002AF93B6A03F00203002B09D07B681B6810
:109A2C00DB6803F00303002B02D07868FEF75AFEC4
:109A3C003B6A03F04003002B0CD03B6903F010038E
:109A4C00002B07D07B6A43F480637B627B681B68C6
:109A5C0010221A613B6A03F02003002B0BD03B69E8
:109A6C0003F00803002B06D07B681B6808221A61E0
:109A7C00786800F00AF93B6A03F01003002B09D058
:109A8C007B681B681B6903F00303002B02D078680A
:109A9C0000F0F2F83B6A03F40033002B0BD0FB69A7
:109AAC0003F01003002B06D07B681B6810225A6051
:109ABC00786800F0F3F83B6A03F48033002B0BD08A
:109ACC00FB6903F00803002B06D07B681B68082297
:109ADC005A60786800F0EBF83B6A03F40043002B03
:109AEC007BD0FB6903F00403002B72D03B6A03F4B8
:109AFC008073002B08D0FB6803F00103002B03D00C
:109B0C007B6A43F001037B623B6A03F40073002B16
:109B1C0008D0FB6803F00203002B03D07B6A43F0F0
:109B2C0002037B623B6A03F48063002B08D0FB6862
:109B3C0003F00403002B03D07B6A43F004037B6225
:109B4C003B6A03F40063002B43D0FB6803F0700303
:109B5C00002B3ED0FB6803F07003602B2BD0602BE6
:109B6C002ED8502B22D0502B2AD8402B19D0402B3A
:109B7C0026D8302B10D0302B22D8102B02D0202BF3
:109B8C0005D01DE07B6A43F008037B6219E07B6A19
:109B9C0043F010037B6214E07B6A43F020037B628A
:109BAC000FE07B6A43F040037B620AE07B6A43F080
:109BBC0080037B6205E07B6A43F480737B6200E088
:109BCC0000BF7B681B689A697B681B6822F0700277
:109BDC009A617B681B6804225A607B6A002B08D050
:109BEC007B685A6A7B6A1A437B685A62786800F011
:109BFC0067F800BF2837BD4680BD80B483B000AF86
:109C0C00786000BF0C37BD4680BC704780B483B011
:109C1C0000AF786000BF0C37BD4680BC704780B485
:109C2C0083B000AF786000BF0C37BD4680BC704776
:109C3C0080B483B000AF786000BF0C37BD4680BCE9
:109C4C00704780B483B000AF786000BF0C37BD465E
:109C5C0080BC704780B483B000AF786000BF0C3715
:109C6C00BD4680BC704780B483B000AF786000BF45
:109C7C000C37BD4680BC704780B483B000AF7860B1
:109C8C0000BF0C37BD4680BC704780B483B000AFBA
:109C9C00786000BF0C37BD4680BC704780B483B081
:109CAC0000AF786000BF0C37BD4680BC704780B4F5
:109CBC0083B000AF786000BF0C37BD4680BC7047E6
:109CCC0080B483B000AF786000BF0C37BD4680BC59
:109CDC007047000080B485B000AF78607B6803F0FB
:109CEC000703FB600C4BDB68BB60BA684FF6FF03E5
:109CFC001340BB60FB681A02BB68134343F0BF639D
:109D0C0043F40033BB60044ABB68D36000BF143714
:109D1C00BD4680BC704700BF00ED00E080B400AFD2
:109D2C00044BDB681B0A03F007031846BD4680BCD6
:109D3C00704700BF00ED00E080B483B000AF034675
:109D4C00FB7197F90730002B0BDBFB7903F01F023B
:109D5C00064997F907305B09012000FA02F241F835
:109D6C00232000BF0C37BD4680BC704700E100E0EB
:109D7C0080B483B000AF03463960FB7197F90730AC
:109D8C00002B0ADB3B68DAB20C4997F90730120159
:109D9C00D2B20B4483F800230AE03B68DAB20849DC
:109DAC00FB7903F00F03043B1201D2B20B441A7679
:109DBC0000BF0C37BD4680BC704700BF00E100E01F
:109DCC0000ED00E080B489B000AFF860B9607A6053
:109DDC00FB6803F00703FB61FB69C3F10703042B6A
:109DEC0028BF0423BB61FB690433062B02D9FB6932
:109DFC00033B00E000237B614FF0FF32BB6902FAAA
:109E0C0003F3DA43BB681A407B699A404FF0FF3189
:109E1C007B6901FA03F3D9437B680B401343184663
:109E2C002437BD4680BC704780B582B000AF7860E7
:109E3C007B68013BB3F1807F01D301230FE00A4A19
:109E4C007B68013B53600F214FF0FF30FFF790FF11
:109E5C00054B00229A60044B07221A600023184617
:109E6C000837BD4680BD00BF10E000E080B582B071
:109E7C0000AF78607868FFF72DFF00BF0837BD464C
:109E8C0080BD80B586B000AF0346B9607A60FB73C5
:109E9C0000237B61FFF742FF78617A68B9687869C3
:109EAC00FFF790FF024697F90F3011461846FFF75F
:109EBC005FFF00BF1837BD4680BD80B582B000AFD4
:109ECC000346FB7197F907301846FFF735FF00BFC3
:109EDC000837BD4680BD80B582B000AF7860786829
:109EEC00FFF7A2FF034618460837BD4680BD0000A9
:109EFC00F0B587B000AFF860B960C7E90023012363
:109F0C00FB750023BB7500237B752F4B1B7E012B30
:109F1C0001D1022354E02C4B01221A764CF2503022
:109F2C0000F0A8F80346FB75FB7D002B44D1FB68C1
:109F3C00012B02D101237B7507E0FB68022B02D1B8
:109F4C0002237B7501E004237B750023BB752DE098
:109F5C00BB7D5A00BB6802EB030CBB7D1901D7E932
:109F6C000023C1F12006A1F1200022FA01F403FA2A
:109F7C0006F6344323FA00F0044323FA01F5A3B2A6
:109F8C001946604600F05AF84CF2503000F072F866
:109F9C000346FB750D4B1B690C4A23F0010313613F
:109FAC00FB7D002B07D1BB7D0133BB75BA7D7B7D5F
:109FBC009A42CDD300E000BF034B00221A76FB7D02
:109FCC0018461C37BD46F0BD084900200020024051
:109FDC0080B483B000AF0023FB710D4B1B6903F001
:109FEC008003002B0DD00A4B0A4A5A60084B0A4AD0
:109FFC005A60074B1B6903F08003002B01D001232F
:10A00C00FB71FB7918460C37BD4680BC704700BF0E
:10A01C000020024023016745AB89EFCD80B400AF2F
:10A02C00054B1B69044A43F0800313610023184657
:10A03C00BD4680BC704700BF0020024080B483B096
:10A04C0000AF78600B467B80084B0022DA61084B2E
:10A05C001B69074A43F0010313617B687A881A80F5
:10A06C0000BF0C37BD4680BC704700BF08490020BC
:10A07C000020024080B584B000AF7860FEF798FFF6
:10A08C00F86010E07B68B3F1FF3F0CD07B68002BCD
:10A09C0007D0FEF78DFF0246FB68D31A7A689A4206
:10A0AC0001D2032325E0154BDB6803F00103002BE1
:10A0BC00E8D1124BDB6803F02003002B02D00F4BCE
:10A0CC002022DA600D4BDB6803F01003002B0BD160
:10A0DC000A4BDB6903F00103002B05D1074BDB684E
:10A0EC0003F00403002B03D000F00AF8012300E076
:10A0FC00002318461037BD4680BD00BF002002402B
:10A10C0080B483B000AF00237B60234BDB6803F08B
:10A11C001003002B09D0214BDB6943F002031F4ACB
:10A12C00D3617B6843F010037B601B4BDB6803F04F
:10A13C000403002B09D0194BDB6943F00103174AC8
:10A14C00D3617B6843F004037B60134BDB6903F042
:10A15C000103002B0BD0114BDB6943F004030F4AB6
:10A16C00D3610D4BDB690C4A23F00103D3617B688F
:10A17C0040F20112934206D1074BDB69064A23F0E9
:10A18C000103D36102E0044A7B68D36000BF0C3743
:10A19C00BD4680BC704700BF00200240084900202B
:10A1AC0080B584B000AF786039600123FB73002365
:10A1BC00BB602F4B1B7E012B01D1022353E02C4B98
:10A1CC0001221A767B681B68022B16D14CF2503098
:10A1DC00FFF750FF0346002B41D1012000F04CF853
:10A1EC004CF25030FFF746FF0346FB73214B1B69C3
:10A1FC00204A23F00403136131E04CF25030FFF796
:10A20C0039FF0346002B2AD13B684FF0FF321A600E
:10A21C007B689B68BB6019E0B86800F049F84CF2A9
:10A22C005030FFF727FF0346FB73124B1B69114A93
:10A23C0023F002031361FB7B002B03D03B68BA684D
:10A24C001A600CE0BB6803F58063BB607B68DB685D
:10A25C009A027B689B681344BA689A42DCD3044B1D
:10A26C0000221A76FB7B18461037BD4680BD00BF16
:10A27C00084900200020024080B483B000AF786011
:10A28C00094B0022DA61094B1B69084A43F00403AD
:10A29C001361064B1B69054A43F04003136100BF71
:10A2AC000C37BD4680BC7047084900200020024096
:10A2BC0080B483B000AF78600B4B0022DA610B4B9B
:10A2CC001B690A4A43F002031361084A7B68536115
:10A2DC00064B1B69054A43F04003136100BF0C3762
:10A2EC00BD4680BC704700BF0849002000200240DA
:10A2FC0080B48BB000AF7860396000237B620023A0
:10A30C003B6269E101227B6A02FA03F3FB613B6861
:10A31C001B68FA691340BB61BA69FB699A4240F049
:10A32C0058813B685B689A4A93425ED0984A934244
:10A33C0075D8984A934258D0964A93426FD8964A09
:10A34C00934252D0944A934269D8944A93424CD047
:10A35C00924A934263D8924A934246D0904A93428F
:10A36C005DD8122B2AD8122B59D801A252F823F0FF
:10A37C00F7A30008D1A30008E3A3000825A4000854
:10A38C002BA400082BA400082BA400082BA4000865
:10A39C002BA400082BA400082BA400082BA4000855
:10A3AC002BA400082BA400082BA400082BA4000845
:10A3BC002BA40008D9A30008EDA30008794A934206
:10A3CC0013D02CE03B68DB683B6229E03B68DB6820
:10A3DC0004333B6224E03B68DB6808333B621FE0DC
:10A3EC003B68DB680C333B621AE03B689B68002BD4
:10A3FC0002D104233B6213E03B689B68012B05D11F
:10A40C0008233B627B68FA691A6109E008233B6206
:10A41C007B68FA695A6103E000233B6200E000BFED
:10A42C00BB69FF2B01D87B6801E07B6804337B613F
:10A43C00BB69FF2B02D87B6A9B0002E07B6A083B5E
:10A44C009B003B617B691A680F213B6901FA03F39E
:10A45C00DB431A40396A3B6901FA03F31A437B69FF
:10A46C001A603B685B6803F08053002B00F0B180EE
:10A47C004D4B9B694C4A43F0010393614A4B9B69DA
:10A48C0003F00103BB60BB68484A7B6A9B0802333C
:10A49C0052F82330FB607B6A03F003039B000F220E
:10A4AC0002FA03F3DB43FA681340FB607B68404A13
:10A4BC00934213D07B683F4A93420DD07B683E4A4F
:10A4CC00934207D07B683D4A934201D1032306E0B7
:10A4DC00042304E0022302E0012300E000237A6A53
:10A4EC0002F0030292009340FA681343FB602F4979
:10A4FC007B6A9B080233FA6841F823203B685B684F
:10A50C0003F48013002B06D02D4B9A682C49BB69A1
:10A51C0013438B6006E02A4B9A68BB69DB432849DE
:10A52C0013408B603B685B6803F40013002B06D070
:10A53C00234BDA682249BB691343CB6006E0204BFE
:10A54C00DA68BB69DB431E491340CB603B685B6830
:10A55C0003F40033002B06D0194B5A681849BB6919
:10A56C0013434B6006E0164B5A68BB69DB43144936
:10A57C0013404B603B685B6803F48033002B21D0A5
:10A58C000F4B1A680E49BB6913430B6021E000BFE7
:10A59C0000003210000031100000221000002110C9
:10A5AC0000001210000011100010024000000140C9
:10A5BC0000080140000C0140001001400014014053
:10A5CC00000401400B4B1A68BB69DB43094913407B
:10A5DC000B607B6A01337B623B681A687B6A22FAE8
:10A5EC0003F3002B7FF48EAE00BF00BF2C37BD46AB
:10A5FC0080BC70470004014080B483B000AF786029
:10A60C000B467B8013467B707B78002B03D07A88BB
:10A61C007B681A6103E07B881A047B681A6100BFAF
:10A62C000C37BD4680BC704780B582B000AF034686
:10A63C00FB80084B5A69FB881340002B06D0054A57
:10A64C00FB885361FB88184600F006F800BF0837FA
:10A65C00BD4680BD0004014080B483B000AF03460A
:10A66C00FB8000BF0C37BD4680BC704780B400AF88
:10A67C00034B01221A6000BFBD4680BC704700BF6F
:10A68C0020000E4280B586B000AF78607B68002B4E
:10A69C0001D1012372E27B681B6803F00103002BDC
:10A6AC0000F08780924B5B6803F00C03042B0CD0FA
:10A6BC008F4B5B6803F00C03082B12D18C4B5B683F
:10A6CC0003F48033B3F5803F0BD1894B1B6803F443
:10A6DC000033002B6CD07B685B68002B68D10123A6
:10A6EC004CE27B685B68B3F5803F06D1804B1B68FE
:10A6FC007F4A43F4803313602EE07B685B68002B49
:10A70C000CD17B4B1B687A4A23F480331360784B53
:10A71C001B68774A23F4802313601DE07B685B6819
:10A72C00B3F5A02F0CD1724B1B68714A43F48023F4
:10A73C0013606F4B1B686E4A43F4803313600BE05D
:10A74C006B4B1B686A4A23F480331360684B1B689D
:10A75C00674A23F4802313607B685B68002B13D05B
:10A76C00FEF726FC386108E0FEF722FC02463B6946
:10A77C00D31A642B01D9032300E25D4B1B6803F44D
:10A78C000033002BF0D014E0FEF712FC386108E027
:10A79C00FEF70EFC02463B69D31A642B01D9032346
:10A7AC00ECE1534B1B6803F40033002BF0D100E0B9
:10A7BC0000BF7B681B6803F00203002B63D04C4B7B
:10A7CC005B6803F00C03002B0BD0494B5B6803F068
:10A7DC000C03082B1CD1464B5B6803F48033002B15
:10A7EC0016D1434B1B6803F00203002B05D07B688A
:10A7FC001B69012B01D00123C0E13D4B1B6823F0E9
:10A80C00F8027B685B69DB00394913430B603AE063
:10A81C007B681B69002B20D0364B01221A60FEF797
:10A82C00C7FB386108E0FEF7C3FB02463B69D31A4D
:10A83C00022B01D90323A1E12D4B1B6803F002036A
:10A84C00002BF0D02A4B1B6823F0F8027B685B6965
:10A85C00DB00274913430B6015E0264B00221A60DE
:10A86C00FEF7A6FB386108E0FEF7A2FB02463B6947
:10A87C00D31A022B01D9032380E11D4B1B6803F073
:10A88C000203002BF0D17B681B6803F00803002B3C
:10A89C003AD07B689B69002B19D0174B01221A60A8
:10A8AC00FEF786FB386108E0FEF782FB02463B6947
:10A8BC00D31A022B01D9032360E10D4B5B6A03F021
:10A8CC000203002BF0D0012000F0CEFA1CE00A4B62
:10A8DC0000221A60FEF76CFB38610FE0FEF768FB94
:10A8EC0002463B69D31A022B08D9032346E100BF69
:10A8FC00001002400000424280044242924B5B6ACC
:10A90C0003F00203002BE9D17B681B6803F00403FE
:10A91C00002B00F0A6800023FB758B4BDB6903F04A
:10A92C008053002B0DD1884BDB69874A43F0805351
:10A93C00D361854BDB6903F08053BB60BB6801239B
:10A94C00FB75824B1B6803F48073002B18D17F4B73
:10A95C001B687E4A43F480731360FEF729FB386151
:10A96C0008E0FEF725FB02463B69D31A642B01D99C
:10A97C00032303E1754B1B6803F48073002BF0D0A9
:10A98C007B68DB68012B06D16F4B1B6A6E4A43F068
:10A99C00010313622DE07B68DB68002B0CD16A4B42
:10A9AC001B6A694A23F001031362674B1B6A664AF0
:10A9BC0023F0040313621CE07B68DB68052B0CD1CD
:10A9CC00614B1B6A604A43F0040313625E4B1B6AC3
:10A9DC005D4A43F0010313620BE05B4B1B6A5A4A5E
:10A9EC0023F001031362584B1B6A574A23F00403EC
:10A9FC0013627B68DB68002B15D0FEF7D9FA38613F
:10AA0C000AE0FEF7D5FA02463B69D31A41F28832C6
:10AA1C00934201D90323B1E04B4B1B6A03F00203B1
:10AA2C00002BEED014E0FEF7C3FA38610AE0FEF713
:10AA3C00BFFA02463B69D31A41F28832934201D9DC
:10AA4C0003239BE0404B1B6A03F00203002BEED167
:10AA5C00FB7D012B05D13C4BDB693B4A23F080533A
:10AA6C00D3617B68DB69002B00F08780364B5B6819
:10AA7C0003F00C03082B61D07B68DB69022B46D1F9
:10AA8C00334B00221A60FEF793FA386108E0FEF7A8
:10AA9C008FFA02463B69D31A022B01D903236DE0CE
:10AAAC00294B1B6803F00073002BF0D17B681B6AE9
:10AABC00B3F5803F08D1244B5B6823F400327B68EC
:10AACC009B68214913434B601F4B5B6823F4741242
:10AADC007B68196A7B685B6A0B431B4913434B60A9
:10AAEC001B4B01221A60FEF763FA386108E0FEF78F
:10AAFC005FFA02463B69D31A022B01D903233DE0CE
:10AB0C00114B1B6803F00073002BF0D035E0104B99
:10AB1C0000221A60FEF74CFA386108E0FEF748FA9A
:10AB2C0002463B69D31A022B01D9032326E0064BBC
:10AB3C001B6803F00073002BF0D11EE07B68DB690F
:10AB4C00012B07D1012319E00010024000700040D6
:10AB5C00600042420B4B5B68FB60FB6803F4803285
:10AB6C007B681B6A9A4206D1FB6803F470127B68FF
:10AB7C005B6A9A4201D0012300E000231846183783
:10AB8C00BD4680BD0010024080B584B000AF786037
:10AB9C0039607B68002B01D10123D0E06A4B1B6824
:10ABAC0003F007033A689A4210D9674B1B6823F0ED
:10ABBC00070265493B6813430B60634B1B6803F04A
:10ABCC0007033A689A4201D00123B8E07B681B68FE
:10ABDC0003F00203002B20D07B681B6803F00403F6
:10ABEC00002B05D0594B5B68584A43F4E063536023
:10ABFC007B681B6803F00803002B05D0534B5B6884
:10AC0C00524A43F460535360504B5B6823F0F0029C
:10AC1C007B689B684D4913434B607B681B6803F052
:10AC2C000103002B40D07B685B68012B07D1474B9D
:10AC3C001B6803F40033002B15D101237FE07B68E4
:10AC4C005B68022B07D1414B1B6803F00073002B90
:10AC5C0009D1012373E03D4B1B6803F00203002B69
:10AC6C0001D101236BE0394B5B6823F003027B6855
:10AC7C005B68364913434B60FEF79AF9F8600AE0BB
:10AC8C00FEF796F90246FB68D31A41F288329342DA
:10AC9C0001D9032353E02D4B5B6803F00C027B6856
:10ACAC005B689B009A42EBD1274B1B6803F00703B0
:10ACBC003A689A4210D2244B1B6823F007022249AF
:10ACCC003B6813430B60204B1B6803F007033A6887
:10ACDC009A4201D0012332E07B681B6803F0040325
:10ACEC00002B08D0194B5B6823F4E0627B68DB68AF
:10ACFC00164913434B607B681B6803F00803002B59
:10AD0C0009D0124B5B6823F460527B681B69DB0033
:10AD1C000E4913434B6000F021F802460B4B5B6865
:10AD2C001B0903F00F030A49CB5C22FA03F3094A0F
:10AD3C001360094B1B681846FEF7F8F800231846F9
:10AD4C001037BD4680BD00BF0020024000100240FD
:10AD5C00ECB30008080000200C00002080B487B081
:10AD6C0000AF0023FB600023BB6000237B6100234A
:10AD7C007B6000233B611E4B5B68FB60FB6803F050
:10AD8C000C03042B02D0082B03D027E0194B3B619A
:10AD9C0027E0FB689B0C03F00F03174AD35C7B6026
:10ADAC00FB6803F48033002B10D0114B5B685B0CF9
:10ADBC0003F00103114AD35CBB607B680D4A03FBB3
:10ADCC0002F2BB68B2FBF3F37B6104E07B680C4AD4
:10ADDC0002FB03F37B617B693B6102E0054B3B614A
:10ADEC0000BF3B6918461C37BD4680BC704700BF8E
:10ADFC000010024000127A0004B4000814B40008D9
:10AE0C0000093D0080B400AF024B1B681846BD46DC
:10AE1C0080BC70470800002080B500AFFFF7F2FF40
:10AE2C000246054B5B681B0A03F007030349CB5C26
:10AE3C0022FA03F3184680BD00100240FCB3000850
:10AE4C0080B500AFFFF7DEFF0246054B5B68DB0AFF
:10AE5C0003F007030349CB5C22FA03F3184680BDC9
:10AE6C0000100240FCB3000880B485B000AF7860DD
:10AE7C000A4B1B680A4AA2FB03235B0A7A6802FB93
:10AE8C0003F3FB6000BFFB685A1EFA60002BF9D17C
:10AE9C0000BF00BF1437BD4680BC704708000020BF
:10AEAC00D34D621080B582B000AF78607B68002B08
:10AEBC0001D1012342E07B6893F84130DBB2002BD7
:10AECC0006D17B68002283F840207868FDF7B4FF38
:10AEDC007B68242283F841207B681B68DA687B68D6
:10AEEC001B6822F40052DA60786800F071F97B6814
:10AEFC001B681A697B681B6822F490421A617B6894
:10AF0C001B685A697B681B6822F02A025A617B68AD
:10AF1C001B68DA687B681B6842F40052DA607B6855
:10AF2C0000225A647B68202283F841207B6820220F
:10AF3C0083F842207B6800225A63002318460837A6
:10AF4C00BD4680BD80B58AB002AFF860B9603B6089
:10AF5C001346FB8000237B61FB6893F84130DBB226
:10AF6C00202B75D1BB68002B02D0FB88002B01D1A4
:10AF7C0001236EE0FB6800225A64FB68212283F8EF
:10AF8C004120FEF715F87861FB68FA889A84FB6813
:10AF9C00FA88DA84FB689B68B3F5805F08D1FB689C
:10AFAC001B69002B04D10023FB61BB68BB6103E070
:10AFBC00BB68FB610023BB612EE03B6800937B699F
:10AFCC0000228021F86800F048F80346002B05D0D9
:10AFDC00FB68202283F8412003233AE0FB69002B15
:10AFEC000BD1BB691B881A46FB681B68C2F30802AD
:10AFFC005A60BB690233BB6107E0FB691A78FB68D6
:10B00C001B685A60FB690133FB61FB68DB8C9BB2EC
:10B01C00013B9AB2FB68DA84FB68DB8C9BB2002B99
:10B02C00CBD13B6800937B6900224021F86800F08B
:10B03C0014F80346002B05D0FB68202283F841202E
:10B04C00032306E0FB68202283F84120002300E064
:10B05C00022318462037BD4680BD80B586B000AFB0
:10B06C00F860B9603B601346FB713BE03B6AB3F19F
:10B07C00FF3F37D0FDF79CFF02463B68D31A3A6A74
:10B08C009A4202D33B6A002B01D103233AE0FB68BE
:10B09C001B68DB6803F00403002B23D0BB68802BF8
:10B0AC0020D0BB68402B1DD0FB681B681B6803F0CD
:10B0BC000803082B16D100237B61FB681B681B68F7
:10B0CC007B61FB681B685B687B617B69F86800F0DF
:10B0DC001DF8FB6808225A64FB68002283F84020A4
:10B0EC0001230FE0FB681B681A68BB681340BA6841
:10B0FC009A420CBF01230023DBB21A46FB799A4219
:10B10C00B4D0002318461837BD4680BD80B495B026
:10B11C0000AF78607B681B680C337B637B6B53E8F8
:10B12C00003F3B633B6B23F49073FB647B681B68B1
:10B13C000C33FA6C3A64FB63F96B3A6C41E800230C
:10B14C00BB63BB6B002BE5D17B681B6814333B6284
:10B15C003B6A53E8003FFB61FB6923F00103BB64CE
:10B16C007B681B681433BA6CFA62BB62B96AFA6A00
:10B17C0041E800237B627B6A002BE5D17B681B6B6B
:10B18C00012B19D17B681B680C33FB60FB6853E8FF
:10B19C00003FBB60BB6823F010037B647B681B68BB
:10B1AC000C337A6CBA617B617969BA6941E8002326
:10B1BC003B613B69002BE5D17B68202283F8422060
:10B1CC007B6800221A6300BF5437BD4680BC7047B1
:10B1DC0080B584B000AF78607B681B681B6923F472
:10B1EC0040517B68DA687B681B680A431A617B688C
:10B1FC009A687B681B691A437B685B691343BB6065
:10B20C007B681B68DB6823F4B05323F00C037A686B
:10B21C001268B9680B43D3607B681B685B6923F4C5
:10B22C0040717B689A697B681B680A435A617B682A
:10B23C001B682C4A934203D1FFF702FEF86002E030
:10B24C00FFF7EAFDF860FA6813469B0013449A0076
:10B25C001A447B685B689B00B2FBF3F3224AA2FBA7
:10B26C0003235B091901FA6813469B0013449A00E7
:10B27C001A447B685B689B00B2FBF3F21A4BA3FB8E
:10B28C0002035B09642000FB03F3D31A1B01323366
:10B29C00154AA2FB03235B0903F0F0031944FA6877
:10B2AC0013469B0013449A001A447B685B689B000E
:10B2BC00B2FBF3F20C4BA3FB02035B09642000FB13
:10B2CC0003F3D31A1B013233074AA2FB03235B0996
:10B2DC0003F00F027B681B680A449A6000BF1037AA
:10B2EC00BD4680BD003801401F85EB5110B50139BA
:10B2FC000244904201D1002005E0037811F8014F7F
:10B30C00A34201D0181B10BD0130F2E703460244E2
:10B31C00934200D1704703F8011BF9E770B5002682
:10B32C000C4D0D4C641BA410A64209D100F028F85A
:10B33C0000260A4D0A4C641BA410A64205D170BD10
:10B34C0055F8043B98470136EEE755F8043B98470F
:10B35C000136F2E718B4000818B4000818B4000855
:10B36C001CB400080A44914200F1FF3300D170472D
:10B37C0010B511F8014B914203F8014FF9D110BDF2
:10B38C00F8B500BFF8BC08BC9E467047F8B500BFC6
:08B39C00F8BC08BC9E46704796
:10B3A4007265710073697A650000000066696C65F6
:10B3B4005F737461727400007000000066696C65EC
:10B3C4005F656E64000000006661696C656400007E
:10B3D40063636F6D706C657465000000636F6D70FE
:10B3E4006C657465000000000000000000000000AF
:10B3F4000102030406070809000000000102030417
:10B4040002030405060708090A0B0C0D0E0F1010A1
:04B414000102000031
:04B418003181000876
:04B41C000D81000896
:10B42000616263646566676800127A00100000005C
:04B430000100000017
:0400000508008EC1A0
:00000001FF
